{
  "address": "0xB7f8BC63BbcaD18155201308C8f3540b07f84F5e",
  "abi": [
    {
      "inputs": [
        {
          "internalType": "address",
          "name": "exampleExternalContractAddress",
          "type": "address"
        }
      ],
      "stateMutability": "nonpayable",
      "type": "constructor"
    },
    {
      "anonymous": false,
      "inputs": [
        {
          "indexed": false,
          "internalType": "address",
          "name": "who",
          "type": "address"
        },
        {
          "indexed": false,
          "internalType": "uint256",
          "name": "amount",
          "type": "uint256"
        }
      ],
      "name": "Stake",
      "type": "event"
    },
    {
      "inputs": [
        {
          "internalType": "address",
          "name": "",
          "type": "address"
        }
      ],
      "name": "balances",
      "outputs": [
        {
          "internalType": "uint256",
          "name": "",
          "type": "uint256"
        }
      ],
      "stateMutability": "view",
      "type": "function"
    },
    {
      "inputs": [],
      "name": "deadline",
      "outputs": [
        {
          "internalType": "uint256",
          "name": "",
          "type": "uint256"
        }
      ],
      "stateMutability": "view",
      "type": "function"
    },
    {
      "inputs": [],
      "name": "exampleExternalContract",
      "outputs": [
        {
          "internalType": "contract ExampleExternalContract",
          "name": "",
          "type": "address"
        }
      ],
      "stateMutability": "view",
      "type": "function"
    },
    {
      "inputs": [],
      "name": "execute",
      "outputs": [],
      "stateMutability": "nonpayable",
      "type": "function"
    },
    {
      "inputs": [],
      "name": "hasExecuted",
      "outputs": [
        {
          "internalType": "bool",
          "name": "",
          "type": "bool"
        }
      ],
      "stateMutability": "view",
      "type": "function"
    },
    {
      "inputs": [],
      "name": "openForWithdraw",
      "outputs": [
        {
          "internalType": "bool",
          "name": "",
          "type": "bool"
        }
      ],
      "stateMutability": "view",
      "type": "function"
    },
    {
      "inputs": [],
      "name": "stake",
      "outputs": [],
      "stateMutability": "payable",
      "type": "function"
    },
    {
      "inputs": [],
      "name": "threshold",
      "outputs": [
        {
          "internalType": "uint256",
          "name": "",
          "type": "uint256"
        }
      ],
      "stateMutability": "view",
      "type": "function"
    },
    {
      "inputs": [],
      "name": "timeLeft",
      "outputs": [
        {
          "internalType": "uint256",
          "name": "",
          "type": "uint256"
        }
      ],
      "stateMutability": "view",
      "type": "function"
    },
    {
      "inputs": [],
      "name": "withdraw",
      "outputs": [],
      "stateMutability": "payable",
      "type": "function"
    },
    {
      "stateMutability": "payable",
      "type": "receive"
    }
  ],
  "transactionHash": "0x5d9ec9fefc2860511ff6243d3cf73b9286f0d78390f71c39684739f9ba2a89cb",
  "args": [
    "0x610178dA211FEF7D417bC0e6FeD39F05609AD788"
  ],
  "solcInputHash": "4ffe5b016013f887a3d5cc526da9bc59",
  "bytecode": "0x608060405261000f42600a610090565b60025534801561001e57600080fd5b506040516106f03803806106f083398101604081905261003d91610062565b600080546001600160a01b0319166001600160a01b03929092169190911790556100b4565b600060208284031215610073578081fd5b81516001600160a01b0381168114610089578182fd5b9392505050565b600082198211156100af57634e487b7160e01b81526011600452602481fd5b500190565b61062d806100c36000396000f3fe6080604052600436106100955760003560e01c806342cde4e81161005957806342cde4e81461012457806361461954146101405780639876a643146101555780639f75f2271461017f578063d005fdff146101b757600080fd5b80631300a6d1146100a957806327e235e3146100d157806329dcb0cf146100fe5780633a4b66f1146101145780633ccfd60b1461011c57600080fd5b366100a4576100a26101d6565b005b600080fd5b3480156100b557600080fd5b506100be610234565b6040519081526020015b60405180910390f35b3480156100dd57600080fd5b506100be6100ec366004610564565b60016020526000908152604090205481565b34801561010a57600080fd5b506100be60025481565b6100a26101d6565b6100a2610258565b34801561013057600080fd5b506100be670de0b6b3a764000081565b34801561014c57600080fd5b506100a2610355565b34801561016157600080fd5b5060035461016f9060ff1681565b60405190151581526020016100c8565b34801561018b57600080fd5b5060005461019f906001600160a01b031681565b6040516001600160a01b0390911681526020016100c8565b3480156101c357600080fd5b5060035461016f90610100900460ff1681565b33600090815260016020526040812080543492906101f59084906105b2565b9091555050604080513381523460208201527febedb8b3c678666e7f36970bc8f57abf6d8fa2e828c0da91ea5b75bf68ed101a910160405180910390a1565b600060025442106102455750600090565b4260025461025391906105ca565b905090565b60035460ff166102af5760405162461bcd60e51b815260206004820152601b60248201527f4e4f54204f50454e20464f5220414e59205749544844524157414c000000000060448201526064015b60405180910390fd5b33600081815260016020526040808220805490839055905190929083908381818185875af1925050503d8060008114610304576040519150601f19603f3d011682016040523d82523d6000602084013e610309565b606091505b50509050806103515760405162461bcd60e51b81526020600482015260146024820152732320b4b632b2102a379039b2b7321022ba3432b960611b60448201526064016102a6565b5050565b60008054906101000a90046001600160a01b03166001600160a01b0316639d9a7fe96040518163ffffffff1660e01b815260040160206040518083038186803b1580156103a157600080fd5b505afa1580156103b5573d6000803e3d6000fd5b505050506040513d601f19601f820116820180604052508101906103d99190610592565b156104415760405162461bcd60e51b815260206004820152603260248201527f4578616d706c6545787465726e616c436f6e74726163742068617320616c726560448201527118591e481899595b8818dbdb5c1b195d195960721b60648201526084016102a6565b60025442116104875760405162461bcd60e51b815260206004820152601260248201527115125055c81493d188115353d4c81153525560721b60448201526064016102a6565b600354610100900460ff16156104ce5760405162461bcd60e51b815260206004820152600c60248201526b416c726561647920446f6e6560a01b60448201526064016102a6565b6003805461ff001916610100179055670de0b6b3a764000047106105555760008054906101000a90046001600160a01b03166001600160a01b031663522e1177476040518263ffffffff1660e01b81526004016000604051808303818588803b15801561053a57600080fd5b505af115801561054e573d6000803e3d6000fd5b5050505050565b6003805460ff19166001179055565b600060208284031215610575578081fd5b81356001600160a01b038116811461058b578182fd5b9392505050565b6000602082840312156105a3578081fd5b8151801515811461058b578182fd5b600082198211156105c5576105c56105e1565b500190565b6000828210156105dc576105dc6105e1565b500390565b634e487b7160e01b600052601160045260246000fdfea2646970667358221220f3d366d50255637c306afeab3501070d45bcdd9e0bd4a19b0ad5c40258d17b7364736f6c63430008040033",
  "devdoc": {
    "kind": "dev",
    "methods": {},
    "version": 1
  },
  "userdoc": {
    "kind": "user",
    "methods": {},
    "version": 1
  },
  "storageLayout": {
    "storage": [
      {
        "astId": 19,
        "contract": "contracts/Staker.sol:Staker",
        "label": "exampleExternalContract",
        "offset": 0,
        "slot": "0",
        "type": "t_contract(ExampleExternalContract)12"
      },
      {
        "astId": 53,
        "contract": "contracts/Staker.sol:Staker",
        "label": "balances",
        "offset": 0,
        "slot": "1",
        "type": "t_mapping(t_address,t_uint256)"
      },
      {
        "astId": 81,
        "contract": "contracts/Staker.sol:Staker",
        "label": "deadline",
        "offset": 0,
        "slot": "2",
        "type": "t_uint256"
      },
      {
        "astId": 83,
        "contract": "contracts/Staker.sol:Staker",
        "label": "openForWithdraw",
        "offset": 0,
        "slot": "3",
        "type": "t_bool"
      },
      {
        "astId": 85,
        "contract": "contracts/Staker.sol:Staker",
        "label": "hasExecuted",
        "offset": 1,
        "slot": "3",
        "type": "t_bool"
      }
    ],
    "types": {
      "t_address": {
        "encoding": "inplace",
        "label": "address",
        "numberOfBytes": "20"
      },
      "t_bool": {
        "encoding": "inplace",
        "label": "bool",
        "numberOfBytes": "1"
      },
      "t_contract(ExampleExternalContract)12": {
        "encoding": "inplace",
        "label": "contract ExampleExternalContract",
        "numberOfBytes": "20"
      },
      "t_mapping(t_address,t_uint256)": {
        "encoding": "mapping",
        "key": "t_address",
        "label": "mapping(address => uint256)",
        "numberOfBytes": "32",
        "value": "t_uint256"
      },
      "t_uint256": {
        "encoding": "inplace",
        "label": "uint256",
        "numberOfBytes": "32"
      }
    }
  }
}